:020000000329D2
:10000600103083120313FD00FD0B072800000800C3
:0400160000000800DE
:10001A00083083120313FC002330FD00FD0B132864
:06002A00FC0B1328080086
:100030008316031398181E280000182883122E0810
:04004000990008001B
:0E0044008312031329088A002808820008008E
:1000520083120313AE1B2F288611302886152E1B00
:100062003428061135280615AE1A392886103A2882
:1000720086142E1A3E2806103F2806142A184328F2
:1000820006164428061286160B208612AE194B2835
:1000920086114C2886152E1950280611512806154E
:1000A200AE1855288610562886142E185A2806107F
:1000B2005B2806142A185F28061660280612861680
:1000C2000B2086122A1C67280D20682803200800AE
:0E00D2000030831203138C1A0130F000080076
:1000E000831203131A08F100981C782818121816A6
:0600F0007108F000080099
:1000F600831203132A102B08AE0029202A140800A5
:1001060022208A110A128000840AA80A0319A90A61
:08011600F003031D832808001B
:10011E0083120313AD012B0884000008AC002C08D9
:10012E00003A0319A4282C08AE001820AD0A2D0899
:0C013E002B0784000008AC009628080085
:10014A008316031398169030831298008316871724
:10015A00071383128C1EB4281A08F000AE28080070
:10016A0083160313861206120610861006118611CC
:10017A0083128612061286110611861006100D20A9
:10018A000D200D208614061486160B2086120D20CB
:10019A0086160B2086120D2086160B2086120D203D
:1001AA00061086160B2086120D2086160B20861244
:1001BA008610861586160B2086120D2086110614C7
:1001CA0086160B208612061086160B2086120D2024
:1001DA0086160B208612061486160B2086120D2010
:1001EA00061086160B208612861506158614061426
:0C01FA0086160B2086120D202A14080027
:10020600443083120313A0006530A1007630A200AB
:100216006930A3006330A4006530A5003130A60024
:10022600A701033083168800B5201930831699007C
:100236001815A52069207008013A031D262970208B
:100246007008AB007B2008182E292030AB008F20C9
:0A02560008182E292B291D292F2935
:02400E004A2F37
:00000001FF
