:02000000DC29F9
:10000600103083120313FD00FD0B072800000800C3
:0400160000000800DE
:10001A00083083120313FC002330FD00FD0B132864
:06002A00FC0B1328080086
:1000300083120313D11B1E2886111F288615511BFE
:100040002328061124280615D11A282886102928C5
:100050008614511A2D2806102E2806142718322827
:1000600006163328061286160B208612D1193A2856
:1000700086113B28861551193F2806114028061580
:10008000D11844288610452886145118492806108E
:100090004A28061427184E2806164F2806128616D8
:1000A0000B208612271C56280D20572803200800F5
:1000B00083120313D201F30108307302031880285E
:1000C00080305105F2000730F1007208F00071082D
:1000D00003196E28F00CF013FF3E68287018722880
:1000E000871173288715D10D5110D20D52100715A5
:1000F000F001071AF00A7008D2040711F30A5C280D
:060100005208F0000800A7
:100106008312031387100330FD00FD0B88284F0868
:10011600D1005820FF30D10058207008D000871435
:0E0126000330FD00FD0B95285008F000080086
:1001340083120313CF1687100330FD00FD0BA02894
:100144004F08D10058205008D1005820871403309C
:0C015400FD00FD0BAB285008F000080077
:0E0160008312031326088A0025088200080077
:10016E008312031327104F08D100182027140800FC
:10017E00073083120313CF007E30D0009A20E13077
:0C018E00CF008320E230CF008320080067
:10019A00831603138612061206108610061186119C
:1001AA0083128612061286110611861006100D2079
:1001BA000D200D208614061486160B2086120D209B
:1001CA0086160B2086120D2086160B2086120D200D
:1001DA00061086160B2086120D2086160B20861214
:1001EA008610861586160B2086120D208611061497
:1001FA0086160B208612061086160B2086120D20F4
:10020A0086160B208612061486160B2086120D20DF
:10021A00061086160B2086128615061586140614F5
:0C022A0086160B2086120D2027140800F9
:100236008312031387100330FD00FD0B20294A08A3
:10024600D1005820CD014C084D02031836294D081F
:100256004B07CE00FF30D10058204E0884007008AE
:100266008000CD0A262987140330FD00FD0B3929AD
:0202760008007E
:10027800B0208A110A128000840AA50A0319A60A66
:08028800F003031D3C290800EE
:1002900083120313871007101A30FC00F830FD009A
:1002A000FD0B5029FC0B502900000130CF003F30DE
:1002B000D0009A200230CF000330D0009A200330C3
:1002C000CF000330D0009A200430CF004F30D00050
:1002D0009A200530CF004C30D0009A200630CF0055
:1002E0000730D0009A201130CF002030D0009A2063
:1002F0001C30CF00D0019A201D30CF00D0019A20B1
:10030000CF010F30D0009A20CF010F30D0009A20BB
:100310000730FC007D30FD00FD0B8C29FC0B8C2987
:10032000871407141A30FC00F830FD00FD0B9629E5
:08033000FC0B962900000800F7
:10033800AE29803083120313CA00C129C030CA0015
:10034800C1299430CA00C129D430CA00C1298030DB
:10035800CA00C129831203134A08013A03199D29C7
:100368004A08023A0319A2294A08033A0319A52997
:100378004A08043A0319A829AB294B03F0004A0894
:10038800F0077008CA007008D10018202710CD01A6
:100398004D084C07840000080319DA294D084C075A
:1003A80084000008CF00B720CD0ACC292714080004
:1003B8006E3083120313A0006F30A1002030A2001A
:1003C8002030A300A4018316071087100711871196
:1003D8000716482187140714CD2083168801831235
:1003E80088010730CF0083207008A800A901403099
:1003F8002805F3002908F4000030F4050630F00061
:100408007308F1007408F20070080319122AF20C3C
:10041800F10CF213721BF217FF3E092A0030720624
:10042800031D182A01307106031D432A07104130A5
:10043800FC00EE30FD00FD0B1F2AFC0B1F2A0000FC
:100448006130CA002A30CB002030CC001B2101309B
:10045800CA000130CB002A30CC009C210B30FB00B5
:100468002630FC005D30FD00FD0B382AFC0B382AD5
:10047800FB0B382A00000000BF2007144A2A01306D
:10048800CA000130CB002030CC009C21F5294B2A32
:02400E004A2F37
:00000001FF
