:02000000312BA2
:10000600103083120313FD00FD0B072800000800C3
:0400160000000800DE
:10001A00083083120313FC002330FD00FD0B132864
:06002A00FC0B1328080086
:1000300083120313C41B1E2886111F288615441B18
:100040002328061124280615C41A282886102928D2
:100050008614441A2D2806102E280614301832282B
:1000600006163328061286160B208612C4193A2863
:1000700086113B28861544193F280611402806158D
:10008000C4184428861045288614441849280610A8
:100090004A28061430184E2806164F2806128616CF
:1000A0000B208612301C56280D20572803200800EC
:0800B000FA1FF21300300800F2
:1000B8007B15FB1F66280130F300F201F101F00106
:0800C800FA0DF20CFF300800F4
:0E00D000F201F101F001F801F3010030080027
:1000DE00710DF80DF90D7408F8027508031C750FF3
:1000EE00F902F00DF10D0F30FC00710DF80DF90D48
:1000FE007408701C8828F8027508031C750FF90225
:10010E008D28F80775080318750FF907F00DF10D16
:10011E00FC0B7C28701899287408F80775080318CA
:08012E00750FF907000008003D
:100136007B14FB1FA628F201FA1FFF30F200F10024
:0A014600F000FA0DF20CFF30080083
:10015000FB14FB1FB228FF30F300F200F100F000A7
:08016000FA0DF20CFF3008005B
:10016800A0017208031DC9287108F2007008F10087
:10017800F001A0157208031DC9287108F200F101E9
:10018800A011201672080319D7282008F302031DAE
:10019800031CDB280310F21BDF28F00DF10DF20D14
:1001A800F30BCF28DB280130FC006820E22802305E
:0E01B800FC005C20E2280430FC005820080007
:1001C6008312031330104308C400182030140800AB
:0E01D600073083120313FD00FD0BEF28080015
:0E01E400831203132F088A002E0882000800E1
:1001F200831203137408003A031D08297508003A94
:10020200031D0829FF30F0007F30F10061298312BD
:100212000313FD01F901F801710870040319003498
:1002220071087506FA00FA1BFD09FB01F51F1E296C
:10023200F409F509F40A0319F50AF11F2529F00951
:10024200F109F00A0319F10A71087504FA00FA1BA0
:100252003A296F207B184D29FD1F0034F009F1095E
:10026200F00A0319F10AF809F909F80A0319F90A57
:100272000034F51F4929F11B45297108F90070085E
:10028200F800F101F0012D29F101F001F00A00342A
:10029200F109F009FB0A2A29F80A0319F90A740874
:1002A2007802031D2D2975087902031D2D29F901F4
:1002B200F801F00A0319F10AF11F2D290000FF3499
:0202C200080032
:1002C4007429803083120313BF008729C030BF0014
:1002D40087299430BF008729D430BF008729803014
:1002E400BF008729831203133F08013A03196329C6
:1002F4003F08023A031968293F08033A03196B2996
:100304003F08043A03196E2971294003F0003F089D
:10031400F0077008BF0030147008C40018203010B3
:0A0324004108C4001820301408003E
:10032E0083120313FB0173080319D4297208FA0010
:10033E00F2178E30F302F31FD729F309F30A0830B0
:10034E007302031CBA29F300F10D7208F100F201D9
:10035E0008307302031CBA29F300F10DF101730882
:10036E00031D0310C22973080319C2290310F20CCE
:10037E00F10CF30BBD297B1B711CCC29031CCC2962
:10038E00F10A0319F20AF21BE329FA1FE629F20910
:10039E00F109F10A0319F20AE629F201F101E6293F
:1003AE007B14FB1FE929F201FA1FE929FF30F20045
:1003BE00F100FA0DF20CE9290130FC00EB290030B6
:1003CE00FC00EB29FF30FC00FC080319EF299B20F1
:0A03DE007108F0007208F100080039
:1003E80083120313FB017308031D770803194B2AB3
:1003F80072087606FA007708F3077E30031C082A8D
:10040800F30203184E2A0B2AF302031C512A72081E
:10041800F8007108FC007008FD00F817F6170310C3
:10042800F201F101F0011830A0007D1C252A7408A2
:10043800F00775080318750FF10776080318760F8B
:10044800F207F20CF10CF00CF80CFC0CFD0C03108C
:10045800A00B192AF21B352AF80DF00DF10DF20D3B
:10046800F3037B1B701C472AF81F472AF00A03195D
:10047800F10A0319F20A031D472AF20CF10CF00CD9
:10048800F30A03194E2AFA1FF2130030532A0130D7
:100498006820532A0230A820532A04305C20000028
:0204A80008004A
:1004AA00672A803083120313BF007A2AC030BF0044
:1004BA007A2A9430BF007A2AD430BF007A2A803050
:1004CA00BF007A2A831203133F08013A0319562AF6
:1004DA003F08023A03195B2A3F08033A03195E2AC6
:1004EA003F08043A0319612A642A4003F0003F08CE
:1004FA00F0077008BF007008C40018203010C2014D
:10050A0042084107840000080319932A4208410758
:10051A0084000008C300E320C20A852A30140800B8
:10052A008316031386120612061086100611861108
:10053A0083128612061286110611861006100D20E5
:10054A000D200D208614061486160B2086120D2007
:10055A0086160B2086120D2086160B2086120D2079
:10056A00061086160B2086120D2086160B20861280
:10057A008610861586160B2086120D208611061403
:10058A0086160B208612061086160B2086120D2060
:10059A0086160B208612061486160B2086120D204C
:1005AA00061086160B208612861506158614061462
:0C05BA0086160B2086120D20301408005D
:1005C600F2208A110A128000840AAE0A0319AF0AC1
:0805D600F003031DE32A0800F5
:1005DE00831203137008F8007108F000F101F201A4
:1005EE00F301FB01FC019630F300FA01F01F052B1D
:1005FE00F809F009F80A0319F00AFA177008F10061
:0C060E007808F000F801F201B4200800A8
:10061A00831203139F01C0309F0483161F179F176D
:10062A0083123F08F000F00D7010F00D7010F00DFD
:10063A00701070089F041F14EB201F151F1D272B15
:10064A000000232B1F101E08F100F00183161E085C
:08065A00F0040030F104080077
:10066200743083120313A1006530A2006D30A30021
:100672007030A4003D30A500A6016330A7006F30A2
:10068200A8007530A9006E30AA007430AB003D306E
:10069200AC00AD019522831687018801831288017F
:1006A200BB01BC010130BF000D2370088312B100F1
:1006B2007108B2000230BF000D2370088312B3002C
:1006C2007108B400BF010D23EF22E330F40036308D
:1006D200F5007A30F6007D30F700F421972170089A
:1006E200B9007108BA0080307106F20080307202DF
:1006F200031D7D2B1C307002031C822B30308800BE
:10070200832B88010A30F4000030F5003908F0002C
:100712003A08F100F9207008BD000A30F4000030F8
:10072200F5003908F0003A08F100F9207808F000E5
:100732007908F1007008BE000130BF000130C0002E
:100742002130C10055220130BF000730C0003030D7
:100752003D07C10062210130BF000830C0003030C7
:100762003E07C100622180303206F0008030033A39
:100772007002031DBE2B84303102031CCF2B80304C
:100782003606F0008030033A7002031DCA2B203077
:1007920035020318CF2BBB0A0319BC0A3108B50076
:1007A2003208B60080303406F0008030013A700220
:1007B200031DDD2B90303302031CFC2B80303806E6
:1007C200F0008030013A7002031DE92B5E303702DF
:1007D2000318FC2B0130BB02031CBC0380303C0617
:1007E200F00080307002031DF82B00303B0203182A
:1007F200FC2BBB01BC013308B7003408B8000A3037
:10080200F4000030F5003B08F0003C08F100F9204C
:100812007008BD000A30F4000030F5003B08F0001B
:100822003C08F100F9207808F0007908F10070081E
:10083200BE000230BF000130C0002730C100552287
:100842000230BF000830C00030303D07C1006221D5
:100852000230BF000930C00030303E07C1006221C3
:04086200532B322CB6
:02400E004A2F37
:00000001FF
