:040000008A15002835
:10000800FF00030E83018316AC000A08D0008A01A2
:1000180070088312A100AB0A0319AC0A8030033AB6
:10002800F00080302C067002031D1C282B08E83CC9
:1000380003182028AB01AC010B112108F00083162E
:0E00480050088A002C0E8300FF0E7F0E090068
:04005600000008009E
:10005A00083083120313FC002330FD00FD0B332804
:06006A00FC0B3328080026
:10007000103083120313FD00FD0B3C280000080024
:0E008000073083120313FD00FD0B4428080017
:08008E00FA1FF2130030080014
:1000960083160313DA01F3010830730203187A2872
:1000A600831680305905F2000730F1007208F0001F
:1000B600710803196228F00CF013FF3E5C287018D3
:1000C6006728831287116928831287158316D90D2D
:1000D6005910DA0D5A1083120715F001071AF00AA3
:1000E60070088316DA0483120711F30A4F28831661
:0600F6005A08F0000800AA
:0E00FC00F201F101F001F801F30100300800FB
:10010A007B15FB1F8F280130F300F201F101F0018A
:08011A00FA0DF20CFF300800A1
:1001220083160313D91B9828831286119A288312E7
:1001320086158316591BA02883120611A228831242
:1001420006158316D91AA82883128610AA288312A4
:1001520086148316591AB02883120610B228831205
:10016200061483164D18B82883120616BA2883126D
:10017200061286162B2086128316D919C3288312DB
:100182008611C5288312861583165919CB28831226
:100192000611CD28831206158316D918D328831287
:1001A2008610D5288312861483165918DB288312E9
:1001B2000610DD288312061483164D18E3288312D5
:1001C2000616E5288312061286162B20861283163F
:0C01D2004D1CED282D20EE2838200800E0
:1001DE00831603134D105708D900912083164D1422
:0201EE00080007
:1001F0007B14FB1F0329F201FA1FFF30F200F1000C
:0A020000F000FA0DF20CFF300800C8
:10020A00831203139F01C0309F0483161F179F1781
:10021A005708F000F00D7010F00D7010F00D70100E
:10022A00700883129F041F1440201F151F1D1F29C9
:10023A0000001B291F101E08F100F00183161E087A
:08024A00F0040030F10408008B
:100252008312031387100330FD00FD0B2E29831632
:100262005708D9004B20FF30D9004B207008D80026
:10027200831287140330FD00FD0B3D2983165808B5
:04028200F000080080
:10028600710DF80DF90D7408F8027508031C750F49
:10029600F902F00DF10D0F30FC00710DF80DF90D9E
:1002A6007408701C5C29F8027508031C750FF902A6
:1002B6006129F80775080318750FF907F00DF10D98
:1002C600FC0B502970186D297408F8077508031877
:0802D600750FF9070000080094
:1002DE0083160313D716831287100330FD00FD0B10
:1002EE00762983165708D9004B205808D9004B2081
:1002FE00831287140330FD00FD0B832983165808E3
:04030E00F0000800F3
:10031200A0017208031D9E297108F2007008F10005
:10032200F001A0157208031D9E297108F200F10167
:10033200A011201672080319AC292008F302031D2C
:10034200031CB0290310F21BB429F00DF10DF20DBC
:10035200F30BA429B0290130FC007E20B72902301A
:0E036200FC008520B7290430FC00472008006D
:10037000FB14FB1FC229FF30F300F200F100F00074
:08038000FA0DF20CFF30080039
:0E0388008316031321088A0020088200080053
:10039600DD29803083160313D300F029C030D30043
:1003A600F0299430D300F029D430D300F0298030DE
:1003B600D300F029831603135308013A0319CC29F5
:1003C6005308023A0319D1295308033A0319D429C9
:1003D6005308043A0319D729DA295403F0005308BD
:1003E600F0077008D3007008D900912083164D10CD
:1003F600D601560855078400000803190A2A56082C
:10040600550784000008D700EF20D60AFC294D14B2
:020416000800DC
:10041800073083160313D7007E30D8006F21E130F0
:0C042800D7002921E230D700292108006C
:100434008312031387100330FD00FD0B1F2A83165C
:100444005308D9004B20D601550856020318322A06
:100454005608540784000008D9004B20D60A262ADF
:0E046400831287140330FD00FD0B362A0800BA
:10047200831203137008F8007108F000F101F20111
:10048200F301FB01FC019630F300FA01F01F4F2A41
:10049200F809F009F80A0319F00AFA177008F100CE
:0C04A2007808F000F801F2018921080040
:1004AE00831203137408003A031D662A7508003A76
:1004BE00031D662AFF30F0007F30F100BF2A831241
:1004CE000313FD01F901F8017108700403190034DA
:1004DE0071087506FA00FA1BFD09FB01F51F7C2A4F
:1004EE00F409F509F40A0319F50AF11F832AF00934
:1004FE00F109F00A0319F10A71087504FA00FA1BE2
:10050E00982A43217B18AB2AFD1F0034F009F1090C
:10051E00F00A0319F10AF809F909F80A0319F90A98
:10052E000034F51FA72AF11BA32A7108F9007008E1
:10053E00F800F101F0018B2AF101F001F00A00340C
:10054E00F109F009FB0A882AF80A0319F90A740856
:10055E007802031D8B2A75087902031D8B2AF90177
:10056E00F801F00A0319F10AF11F8B2A0000FF347B
:02057E00080073
:1005800083120313FB017308031D77080319172B4C
:1005900072087606FA007708F3077E30031CD42A27
:1005A000F30203181A2BD72AF302031C1D2B72081F
:1005B000F8007108FC007008FD00F817F61703102A
:1005C000F201F101F0011830A0007D1CF12A74083D
:1005D000F00775080318750FF10776080318760FF2
:1005E000F207F20CF10CF00CF80CFC0CFD0C0310F3
:1005F000A00BE52AF21B012BF80DF00DF10DF20D09
:10060000F3037B1B701C132BF81F132BF00A031929
:10061000F10A0319F20A031D132BF20CF10CF00C72
:10062000F30A03191A2BFA1FF21300301F2B0130A3
:100630007E201F2B0230B8211F2B043085200000A4
:020640000800B0
:1006420083160313861206120610861006118611EF
:1006520083128612061286110611861006102D20AC
:100662002D202D208614061486162B2086122D206E
:1006720086162B2086122D2086162B2086122D20E0
:10068200061086162B2086122D2086162B20861207
:100692008610861586162B2086122D2086110614AA
:1006A20086162B208612061086162B2086122D20E7
:1006B20086162B208612061486162B2086122D20D3
:1006C200061086162B208612861506158614061429
:0E06D20086162B2086122D2083164D1408004C
:1006E000013083160313D70005217008A20071089A
:1006F000A3000230D70005217008A8007108A900E6
:1007000080302306F0008030023A7002031D8A2BED
:1007100058302202031C9D2BA60A0319A70A063093
:10072000FB001330FC00AD30FD00FD0B952BFC0BE6
:10073000952BFB0B952B0000000080302906F00064
:100740008030013A7002031DA72B2C302802031CB5
:10075000C82B0130A602031CA7030630FB00133090
:10076000FC00AD30FD00FD0BB32BFC0BB32BFB0BE2
:10077000B32B0000000080302706F00080307002AC
:10078000031DC42B003026020318C82BA601A701A5
:0207900008005F
:10079200C4218A110A128000840AA00A0319A10A3C
:0807A200F003031DC92B080040
:1007AA00E72B803083160313D300FA2BC030D30013
:1007BA00FA2B9430D300FA2BD430D300FA2B8030A2
:1007CA00D300FA2B831603135308013A0319D62BC5
:1007DA005308023A0319DB2B5308033A0319DE2B99
:1007EA005308043A0319E12BE42B5403F00053088D
:1007FA00F0077008D3004D147008D90091208316B1
:0E080A004D105508D900912083164D1408009A
:1008180083120313FB0173080319492C7208FA00A9
:10082800F2178E30F302F31F4C2CF309F30A083049
:100838007302031C2F2CF300F10D7208F100F20172
:1008480008307302031C2F2CF300F10DF10173081B
:10085800031D0310372C73080319372C0310F20CEF
:10086800F10CF30B322C7B1B711C412C031C412C0B
:10087800F10A0319F20AF21B582CFA1F5B2CF20931
:10088800F109F10A0319F20A5B2CF201F1015B2C60
:100898007B14FB1F5E2CF201FA1F5E2CFF30F20066
:1008A800F100FA0DF20C5E2C0130FC00602C0030D7
:1008B800FC00602CFF30FC00FC080319642CF820B5
:0A08C8007108F0007208F10008004A
:1008D20083120313871007101A30FC00F830FD0052
:1008E200FD0B712CFC0B712C000001308316D7001C
:1008F2003F30D8006F210230D7000330D8006F217B
:100902000330D7000330D8006F210430D7004F30B6
:10091200D8006F210530D7004C30D8006F21063047
:10092200D7000730D8006F211130D7002030D8000F
:100932006F211C30D700D8016F211D30D700D8019C
:100942006F21D7010E30D8006F21D7010E30D800A9
:100952006F210730FC007D30FD00FD0BAE2CFC0B3F
:10096200AE2C8312871407141A30FC00F830FD00F5
:0C097200FD0BB92CFC0BB92C0000080098
:100A100022308400483083120313F000BF30831665
:0A0A2000A0000430A100C923080063
:101000008A1108258A15E0308B008B16C7308316AD
:1010100003138100071087100711871107168A1123
:1010200069248A15871407148A1121238A1504302C
:101030008800831288018316A401A501803025064B
:10104000F00080307002031D27281E302402031890
:10105000402883120814C730FD00FD0B2D28000026
:10106000000008101A30FC003030FD00FD0B36285F
:10107000FC0B362800008316A40A0319A50A1E28B3
:10108000A401A50180302506F00080307002031D08
:101090004B281E3024020318642883128814C7309A
:1010A000FD00FD0B51280000000088101A30FC00E4
:1010B0003030FD00FD0B5A28FC0B5A280000831627
:1010C000A40A0319A50A42280630FB001330FC00CD
:1010D000AD30FD00FD0B6A28FC0B6A28FB0B6A286B
:1010E000000000000230A6000030A700003083128C
:1010F0002A06031D7D2800302906031DC42A8815F1
:101100000630FB001330FC00AD30FD00FD0B8628DF
:10111000FC0B8628FB0B8628000000008811831634
:10112000A401A50180302506F00080307002031D67
:101130009B281E3024020318B7288312081402309B
:10114000FC00F130FD00FD0BA328FC0BA3280000E0
:10115000000008101930FC000530FD00FD0BAE2822
:10116000FC0BAE288316A40A0319A50A9228831241
:10117000AB01AC01831280302C06F000803070028D
:10118000031DC42846302B0203187C298A117023C2
:101190008A150A30F4000030F5002608F000270810
:1011A000F1008A1157228A157008EB000A30F4000A
:1011B0000030F50083162608F0002708F1008A1198
:1011C00057228A157808F0007908F1007008EA00C3
:1011D00002308316D3000130D4002230D5008A11AA
:1011E000CB218A150230D3000830D400303083126E
:1011F0006B078316D5008A11D5238A150230D300D8
:101200000930D400303083126A078316D5008A1162
:10121000D5238A15D7018A1105218A1570088312F2
:10122000EE007108EF008A1139228A15E330F400CC
:101230003630F5007A30F6007D30F7008A11C02292
:101240008A158A110C248A157008EC007108ED00CB
:101250000A30F4000030F5008A1157228A15700810
:10126000EB000A30F4000030F5006C08F0006D0867
:10127000F1008A1157228A157808F0007908F100E8
:1012800070088316D1007108D20051088312EA0059
:101290000A30F4000030F5006C08F0006D08F10031
:1012A0008A1157228A157008EB00831651088312A1
:1012B000EA0003308316D3000130D4005D30D5003E
:1012C0008A11CB218A150330D3000730D400303087
:1012D00083126B078316D5008A11D5238A15033034
:1012E000D3000830D400303083126A078316D5004B
:1012F0008A11D5238A15BA288316A401A501803046
:101300002506F00080307002031D88291E3024025B
:101310000318A12983120814C730FD00FD0B8E2984
:101320000000000008101A30FC003030FD00FD0BFA
:101330009729FC0B972900008316A40A0319A50A14
:101340007F29A401A50180302506F00080307002BD
:10135000031DAC291E3024020318C82983128814E7
:101360000230FC00F130FD00FD0BB429FC0BB42968
:101370000000000088101930FC000530FD00FD0B56
:10138000BF29FC0BBF298316A40A0319A50AA329A8
:101390008312AB01AC01831280302C06F000803048
:1013A0007002031DD52964302B020318992A80305E
:1013B000F0008030831627067002031DE1292608FD
:1013C000053C031C992A8A1170238A150A30F400FF
:1013D0000030F5002608F0002708F1008A11572296
:1013E0008A157008EB000A30F4000030F50083160F
:1013F0002608F0002708F1008A1157228A1578087C
:10140000F0007908F1007008EA0002308316D3007A
:101410000130D4006330D5008A11CB218A15023007
:10142000D3000830D400303083126B078316D50008
:101430008A11D5238A150230D3000930D400303008
:1014400083126A078316D5008A11D5238A15D7011E
:101450008A1105218A1570088312EE007108EF00C9
:101460008A1139228A15E330F4003630F5007A30DB
:10147000F6007D30F7008A11C0228A158A110C24EB
:101480008A157008EC007108ED000A30F400003095
:10149000F5008A1157228A157008EB000A30F40013
:1014A0000030F5006C08F0006D08F1008A11572239
:1014B0008A157808F0007908F10070088316D100C9
:1014C0007108D20051088312EA000A30F40000309B
:1014D000F5006C08F0006D08F1008A1157228A159A
:1014E0007008EB00831651088312EA00033083165C
:1014F000D3000130D4003A30D5008A11CB218A15AF
:101500000330D3000730D400303083126B078316CA
:10151000D5008A11D5238A150330D3000830D400B2
:10152000303083126A078316D5008A11D5238A15B5
:10153000CB298316A401A50180302506F000803058
:101540007002031DA52A1E3024020318BE2A83122E
:101550008814C730FD00FD0BAB2A00000000881086
:101560001A30FC003030FD00FD0BB42AFC0BB42A0D
:1015700000008316A40A0319A50A9C2A8312881561
:101580000130A9000030AA0080302C06F000803025
:101590007002031DCD2A32302B02031C842B4330F2
:1015A0008316B100303083126A078316B0003030E2
:1015B00083126B078316AF003D30AE005430AD0090
:1015C000003083122E06031DE72A01302D06031D6D
:1015D000F72A0D308316B7004530B6005230B500FB
:1015E0004930B4004630B3002030B200042B8316DB
:1015F0000D30B7002030B6002030B5002030B400E8
:101600002030B3002030B200A030D300AD30D40081
:101610002030D5008A111A228A1507140630FB00E3
:101620001330FC00AD30FD00FD0B142BFC0B142B14
:10163000FB0B142B0000000007108230FC00DD3093
:10164000FD00FD0B212BFC0B212B000000000730BF
:101650008316D7008A1129218A157008AA00AB01C8
:1016600020302A05F3002B08F4000030F40573083D
:10167000AA007408AB000530F0007308F10074088C
:10168000F200700803194B2BF20CF10CF213721BD1
:10169000F217FF3E422B83167108AA007208AB00B6
:1016A00000307206031D562B01307106031D652B99
:1016B0000130D3000130D4002F30D5008A11CB2166
:1016C0008A158312AB01AC01842B01308316D30041
:1016D0000130D4004030D5008A11CB218A15013069
:1016E000CE000030CF008A110C228A158312071415
:1016F0008230FC00DD30FD00FD0B7C2BFC0B7C2BD5
:1017000000000000AB01AC010819E92B0130AD006D
:101710000030AE000130D6000030D7000430831610
:10172000D3000130D4005830D5008A11CB218A155E
:10173000831288118316A401A50180302506F000CC
:1017400080307002031DA62B1E3024020318C22B0A
:10175000831208140230FC00F130FD00FD0BAE2BAB
:10176000FC0BAE2B0000000008101930FC00053007
:10177000FD00FD0BB92BFC0BB92B8316A40A031932
:10178000A50A9D2BA401A50180302506F00080301C
:101790007002031DCD2B1E3024020318E92B831287
:1017A00088140230FC00F130FD00FD0BD52BFC0B42
:1017B000D52B0000000088101930FC000530FD001A
:1017C000FD0BE02BFC0BE02B8316A40A0319A50AE2
:1017D000C42B8312081D4D2C00305706031DF22B1D
:1017E00001305606031D4D2CAD01AE01D601D701C7
:1017F00004308316D3000130D4004B30D5008A1159
:10180000CB218A15831288158316A401A501803087
:101810002506F00080307002031D102C1E302402BB
:101820000318292C83120814C730FD00FD0B162C59
:101830000000000008101A30FC003030FD00FD0BE5
:101840001F2CFC0B1F2C00008316A40A0319A50AE9
:10185000072CA401A50180302506F000803070021D
:10186000031D342C1E30240203184D2C831208143F
:10187000C730FD00FD0B3A2C0000000008101A30A4
:10188000FC003030FD00FD0B432CFC0B432C000012
:101890008316A40A0319A50A2B2C8316D7018A11D3
:1018A00005218A1570088312EE007108EF008A1175
:1018B00039228A15E330F4003630F5007A30F6002C
:1018C0007D30F7008A11C0228A158A110C248A15EE
:1018D0007008EC007108ED000A30F4000030F500EB
:1018E0008A1157228A157008EB000A30F400003084
:1018F000F5006C08F0006D08F1008A1157228A1576
:101900007808F0007908F1007008EA0080306D0670
:10191000F00080307002031D8F2C23306C02031CFA
:10192000942C08168812962C081288120A30F4009B
:101930000030F5006C08F0006D08F1008A115722A4
:101940008A157008EB000A30F4000030F5006C08CE
:10195000F0006D08F1008A1157228A157808F0000E
:101960007908F1007008EA0003308316D3000130D3
:10197000D4005030D5008A11CB218A150330D30012
:101980000730D400303083126B078316D5008A11DC
:10199000D5238A150330D3000830D40030308312A9
:1019A0006A078316D5008A11D5238A157628D72C85
:0E097E0063346F3475346E3474343D34003499
:04098C0000340034FF
:0409900000340034FB
:0409940000340034F7
:1009980064346134743461342034743478342034E9
:0609A8002034203400346D
:0C09AE00743465346D3470343D34003412
:1009BA006E346F34203464346134743461342034D6
:0609CA007434783400349F
:0A09D0002034203420342034003499
:0C09DA00743465346D3470343D340034E6
:0409E60000340034A5
:0A09EA004634693472346534003479
:0C09F400743465346D3470343D340034CC
:0E0A000063346F3475346E3474343D34003416
:02400E004A2F37
:00000001FF
