:020000004D2A87
:0400060000000800EE
:10000A00083083120313FC002330FD00FD0B0B287C
:06001A00FC0B0B2808009E
:10002000103083120313FD00FD0B1428000008009C
:1000300083160313CA01F30108307302031847281B
:10004000831680304905F2000730F1007208F00095
:10005000710803192F28F00CF013FF3E292870189F
:100060003428831287103628831287148316C90D0B
:100070004910CA0D4A1083120714F001071AF00A3A
:1000800070088316CA0483120710F30A1C2883160B
:060090004A08F000080020
:1000960083160313C91B522883120613542883128E
:1000A60006178316491B5A28831286125C28831268
:1000B60086168316C91A62288312061264288312CA
:1000C60006168316491A6A28831286116C2883122B
:1000D60086155F1870288614712886100615032069
:1000E60006118316C9197A28831206137C288312EF
:1000F60006178316491982288312861284288312CA
:1001060086168316C9188A28831206128C2883122B
:10011600061683164918922883128611942883128C
:1001260086155F18982886149928861006150320C8
:0E01360006115F1CA0280520A128102008003B
:0E014400831203135C088A005B088200080027
:100152008312031307110330FD00FD0BAE28831633
:100162004708C9001820FF30C90018207008C800CD
:10017200831207150330FD00FD0BBD2883164808C6
:04018200F000080081
:1001860083160313C716831207110330FD00FD0BF8
:10019600CA2883164708C90018204808C90018202D
:1001A600831207150330FD00FD0BD7288316480878
:0401B600F00008004D
:1001BA00831203135F1083164708C9004B205F148C
:0201CA0008002B
:1001CC00831603139818EC280000E62847088312BE
:0401DC00990008007E
:1001E00083160313C401420884000008C3004308B7
:1001F000003A031906294308C700E6208316C40AFB
:0E0200004408420784000008C300F7280800E5
:10020E00A2208A110A128000840ADB0A0319DC0A72
:08021E00F003031D072908008D
:0E0226000030831203138C1A0130F000080020
:100234002C29803083160313C2003F29C030C2002A
:100244003F299430C2003F29D430C2003F29803076
:10025400C2003F29831603134208013A03191B29DC
:100264004208023A031920294208033A03192329B0
:100274004208043A0319262929294303F0004208B5
:10028400F0077008C2007008C9004B205F10831685
:10029400C501450844078400000803195A29450884
:1002A400440784000008C700DD208316C50A4B29D3
:0602B40083125F14080034
:1002BA008312031307110330FD00FD0B6229831615
:1002CA004208C9001820C5014408450203187929C3
:1002DA0045084307C600FF30C900182046088400B5
:1002EA0070088000C50A6929831207150330FD00CA
:0602FA00FD0B7D29080048
:1003000083120313071187111A30FC00F830FD0027
:10031000FD0B8829FC0B8829000001308316C700DB
:100320003F30C800C3200230C7000330C800C320DC
:100330000330C7000330C800C3200430C7004F306B
:10034000C800C3200530C7004C30C800C3200630A9
:10035000C7000730C800C3201130C7002030C800D4
:10036000C3201C30C700C801C3201D30C700C8010E
:10037000C320C7010F30C800C320C7010F30C80019
:10038000C3200730FC007D30FD00FD0BC529FC0BB0
:10039000C5298312071587151A30FC00F830FD00B7
:0C03A000FD0BD029FC0BD0290000080048
:1003AC00831203131A08F100981CDE291812181670
:0603BC007108F0000800CA
:1003C20083160313981690308312980083168717AA
:1003D200071383128C1EF0291A08F000EA2908007C
:1003E200073083160313C7007E30C800C320E130F4
:0C03F200C700A920E230C700A9200800C5
:1003FE008316031306118610861106128612061333
:10040E008312061186100613861206128611052017
:10041E000520052006168615061503200611052053
:10042E0006150320061105200615032006110520CA
:10043E008611061503200611052006150320061148
:10044E00061206170615032006110520061386153B
:10045E000615032006118611061503200611052028
:10046E000615032006118615061503200611052014
:10047E008611061503200611061786160616861512
:0C048E0006150320061105205F1408006D
:10049A00FC2467308316031399001815E12183168B
:1004AA00871107110710871007160330FB008A30DF
:1004BA00FC005530FD00FD0B602AFC0B602AFB0B8B
:1004CA00602A00000000802107158715FF210C30E3
:1004DA008316C9004B208316061083120610831652
:1004EA0008108312ED01EE0180306E06F0008030B4
:1004FA007002031D822A1E306D020318962A081400
:10050A008530FD00FD0B872A08101A30FC00733075
:10051A00FD00FD0B8E2AFC0B8E2AED0A0319EE0A4A
:10052A00792A56308316C200F0200D30C700E62023
:10053A0007308316C700A9207008A000A101403027
:10054A002005F3002108F4000030F4050630F0001D
:10055A007308F1007408F20070080319BB2AF20C40
:10056A00F10CF213721BF217FF3EB22A0030720628
:10057A00031DC12A01307106031DE42A8312871163
:10058A004130FC00EE30FD00FD0BC92AFC0BC92AE4
:10059A00000061308316C200A230C3002030C400BC
:1005AA005D21A2308316C200F0200130C200013062
:1005BA00C300A230C4001A21F12183128715132126
:1005CA0070080319B92C5408623EEF00D6216F084F
:1005DA008400700880005408623E84000008303AA3
:1005EA00031D062B80306106F00080307002031D67
:1005FA00002B0A3060020318062BE00A0319E10AED
:10060A005D2B5408623E84000008333A031D1C2BFC
:10061A0080306106F00080307002031D162B0A300C
:10062A00600203181C2BE00A0319E10A5D2B540827
:10063A00623E84000008323A031D322B8030610684
:10064A00F00080307002031D2C2B0A306002031860
:10065A00322BE00A0319E10A5D2B5408623E84003A
:10066A000008453A031D452B00306106031D3F2B48
:10067A0005306006031D452BE00A0319E10A5D2BCC
:10068A005408623E84000008383A031D5B2B803010
:10069A006106F00080307002031D552B0A3060029B
:1006AA0003185B2BE00A0319E10A5D2BE001E10163
:1006BA005408623E84000008303A031D732B8030D0
:1006CA005E06F00080307002031D6D2B0A305D0259
:1006DA000318732BDD0A0319DE0AD42B5408623E71
:1006EA0084000008333A031D862B00305E06031D82
:1006FA00802B01305D06031D862BDD0A0319DE0AF5
:10070A00D42B5408623E84000008323A031D992B08
:10071A0000305E06031D932B04305D06031D992BE2
:10072A00DD0A0319DE0AD42B5408623E840000084D
:10073A00453A031DAC2B00305E06031DA62B05307F
:10074A005D06031DAC2BDD0A0319DE0AD42B5408FF
:10075A00623E84000008393A031DBF2B00305E0652
:10076A00031DB92B06305D06031DBF2BDD0A0319D5
:10077A00DE0AD42B5408623E84000008423A031D64
:10078A00D22B00305E06031DCC2B08305D06031DFC
:10079A00D22BDD0A0319DE0AD42BDD01DE018030FB
:1007AA006106F00080307002031DDD2B0A30600202
:1007BA00031C342C02308316C2000130C3002830D7
:1007CA00C4001A210630FB001330FC00AD30FD00D6
:1007DA00FD0BED2BFC0BED2BFB0BED2B00000000B2
:1007EA0001308316C9004B2002308316C200013043
:1007FA00C3002030C4001A21E001E101ED01EE013D
:10080A0080306E06F00080307002031D0E2C1E3000
:10081A006D020318222C08148530FD00FD0B132CE1
:10082A0008101A30FC007330FD00FD0B1A2CFC0B6B
:10083A001A2CED0A0319EE0A052C0630FB001330B8
:10084A00FC00AD30FD00FD0B282CFC0B282CFB0B0B
:10085A00282C0000000001308316C9004B2080308C
:10086A005E06F00080307002031D3D2C0A305D02E6
:10087A00031CB92C02308316C2000130C300413078
:10088A00C4001A210630FB001330FC00AD30FD0015
:10089A00FD0B4D2CFC0B4D2CFB0B4D2C00000000CE
:1008AA0001308316C9004B2002308316C200013082
:1008BA00C3003B30C4001A21DD01DE01ED01EE0167
:1008CA0080306E06F00080307002031D6E2C1E30E0
:1008DA006D020318882C08140230FC00F130FD0068
:1008EA00FD0B752CFC0B752C00000000081019304C
:1008FA00FC000530FD00FD0B802CFC0B802CED0A62
:10090A000319EE0A652C0630FB001330FC00AD30EB
:10091A00FD00FD0B8E2CFC0B8E2CFB0B8E2C00008D
:10092A000000ED01EE0180306E06F00080307002AA
:10093A00031DA12C1E306D020318B52C0814853036
:10094A00FD00FD0BA62C08101A30FC007330FD00C8
:10095A00FD0BAD2CFC0BAD2CED0A0319EE0A982CFD
:0C096A0001308316C9004B209D2ABA2CD6
:1009F800203084003B3083120313F000C030DB004A
:080A08000430DC0007210800A6
:1009800055346E34563461346C3469346434003414
:100990005534733465347234323420343A3420346C
:1009A0003034333430343034323445343234383403
:0609B0003334383400343A
:0C09B600563461346C346934643400340D
:1009C2005534733465347234313420343A3420343B
:1009D20030343334303430343234453439343034D2
:0609E20042343034003401
:0409E80000340034A3
:0A09EC0054344534533454340034BD
:02400E004A2F37
:00000001FF
