:02000000282AAC
:0400060000000800EE
:10000A00103083120313FD00FD0B092800000800BD
:10001A00083083120313FC002330FD00FD0B132864
:06002A00FC0B1328080086
:1000300083160313E31B1F28831206132128831240
:1000400006178316631B272883128612292883121A
:1000500086168316E31A2F2883120612312883127C
:1000600006168316631A37288312861139288312DD
:1000700086156F183D2886143E2886100615032025
:1000800006118316E31947288312061349288312A1
:100090000617831663194F2883128612512883127C
:1000A00086168316E31857288312061259288312DE
:1000B0000616831663185F2883128611612883123F
:1000C00086156F1865288614662886100615032085
:0E00D00006116F1C6D280D206E2805200800FB
:1000DE0083160313E401F3010830730203189E28FC
:1000EE00831680306305F2000730F1007208F000CD
:1000FE00710803198628F00CF013FF3E8028701843
:10010E008B28831287108D28831287148316E30D94
:10011E006310E40D641083120714F001071AF00A3D
:10012E0070088316E40483120710F30A73288316EB
:06013E006408F000080057
:10014400831203136F1083166108E30018206F14E1
:020154000800A1
:0E015600831203136E088A006D0882000800F1
:100164008312031307110330FD00FD0BB728831618
:100174006108E3006F20FF30E3006F207008E200A5
:10018400831207150330FD00FD0BC6288316620891
:04019400F00008006F
:1001980083160313E116831207110330FD00FD0BCC
:1001A800D32883166108E3006F206208E3006F20FC
:1001B800831207150330FD00FD0BE0288316620843
:0401C800F00008003B
:1001CC0083160313981690308312980083168717A2
:1001DC00071383128C1EF5281A08F000EF2808006C
:0E01EC000030831203138C1A0130F00008005B
:1001FA000F29803083160313DD002229C030DD0069
:10020A0022299430DD002229D430DD0022298030D1
:10021A00DD002229831603135D08013A0319FE281B
:10022A005D08023A031903295D08033A03190629EE
:10023A005D08043A031909290C295E03F0005D08D8
:10024A00F0077008DD007008E30018206F108316AD
:10025A00E00160085F078400000803193D2960086F
:10026A005F0784000008E100A2208316E00A2E2915
:06027A0083126F1408005E
:100280008312031307110330FD00FD0B452983166C
:100290005D08E3006F20E0015F0860020318582941
:1002A00060085E0784000008E3006F20E00A4C2924
:0E02B000831207150330FD00FD0B5C290800CA
:1002BE008316031306118610861106128612061374
:1002CE0083120611861006138612061286110D2051
:1002DE000D200D20061686150615032006110D207D
:1002EE000615032006110D200615032006110D20FC
:1002FE0086110615032006110D2006150320061182
:10030E00061206170615032006110D200613861574
:10031E0006150320061186110615032006110D2061
:10032E0006150320061186150615032006110D204D
:10033E008611061503200611061786160616861553
:0C034E000615032006110D206F14080096
:10035A00831203131A08F100981CB52918121816EB
:06036A007108F00008001C
:10037000073083160313E1007E30E200CC20E13029
:0C038000E100B220E230E100B2200800F1
:10038C0083120313071187111A30FC00F830FD009B
:10039C00FD0BCE29FC0BCE29000001308316E100A9
:1003AC003F30E200CC200230E1000330E200CC20F0
:1003BC000330E1000330E200CC200430E1004F3088
:1003CC00E200CC200530E1004C30E200CC200630BD
:1003DC00E1000730E200CC201130E1002030E200D7
:1003EC00CC201C30E100E201CC201D30E100E20108
:1003FC00CC20E1010E30E200CC20E1010E30E20015
:10040C00CC200730FC007D30FD00FD0B0B2AFC0BD3
:10041C000B2A8312071587151A30FC00F830FD00E3
:0C042C00FD0B162AFC0B162A000008002D
:10043800AB208A110A128000840AED0A0319EE0A19
:08044800F003031D1C2A08004B
:10045000BA24831603138711071107108710071694
:10046000C621071587155F2102308316DD00013094
:10047000DE002030DF00FD2067308316990018155C
:10048000E620831606108312061001308316DD0065
:100490000130DE006930DF00FD200630FB00133044
:1004A000FC00AD30FD00FD0B532AFC0B532AFB0B67
:1004B000532A000000006F308316C0006C30BF006C
:1004C0006C30BE006530BD006830BC00A030DD007F
:1004D000BC30DE002030DF00402187150630FB00F5
:1004E0001330FC00AD30FD00FD0B742AFC0B742AA8
:1004F000FB0B742A0000000087118230FC00DD3005
:10050000FD00FD0B812AFC0B812A00000000073052
:100510008316E100B2207008BA00BB0120303A0512
:10052000F3003B08F4000030F4057308BA007408C7
:10053000BB000530F0007308F1007408F200700889
:100540000319A92AF20CF10CF213721BF217FF3EE9
:10055000A02A83167108BA007208BB000030720628
:10056000031DB42A01307106031DBE2A0130DD00CF
:100570000130DE005E30DF00FD20C62A0130831628
:10058000DD000130DE00A030DF00FD20B821831245
:1005900087158230FC00DD30FD00FD0BCD2AFC0B01
:1005A000CD2A00000000F620700803195A2C6B08B1
:1005B000AF3E8316DC00AD2183165C088400700812
:1005C000800083126B08AF3E84000008303A031DA0
:1005D000F92A803083162E06F00080307002031D49
:1005E000F32A0A302D020318F92AAD0A0319AE0ABC
:1005F000592B83126B08AF3E84000008333A031D69
:10060000112B803083162E06F00080307002031DFF
:100610000B2B0A302D020318112BAD0A0319AE0A59
:10062000592B83126B08AF3E84000008323A031D39
:10063000292B803083162E06F00080307002031DB7
:10064000232B0A302D020318292BAD0A0319AE0AF9
:10065000592B83126B08AF3E84000008453A031DF6
:100660003E2B003083162E06031D382B05302D0639
:10067000031D3E2BAD0A0319AE0A592B83126B08DA
:10068000AF3E84000008383A031D562B8030831695
:100690002E06F00080307002031D502B0A302D0210
:1006A0000318562BAD0A0319AE0A592B8316AD0158
:1006B000AE0183126B08AF3E84000008303A031D80
:1006C000712B803083162C06F00080307002031DE1
:1006D0006B2B0A302B020318712BAB0A0319AC0ADF
:1006E000DD2B83126B08AF3E84000008333A031DF4
:1006F000862B003083162C06031D802B01302B0621
:10070000031D862BAB0A0319AC0ADD2B83126B0881
:10071000AF3E84000008323A031D9B2B0030831645
:100720002C06031D952B04302B06031D9B2BAB0AB7
:100730000319AC0ADD2B83126B08AF3E840000085E
:10074000453A031DB02B003083162C06031DAA2B3F
:1007500005302B06031DB02BAB0A0319AC0ADD2BA9
:1007600083126B08AF3E84000008393A031DC52B85
:10077000003083162C06031DBF2B06302B06031DED
:10078000C52BAB0A0319AC0ADD2B83126B08AF3EF5
:1007900084000008423A031DDA2B003083162C0631
:1007A000031DD42B08302B06031DDA2BAB0A0319CB
:1007B000AC0ADD2B8316AB01AC0180302E06F000B5
:1007C00080307002031DE62B0A302D02031C0B2C17
:1007D0000230DD000130DE003030DF00FD2002306D
:1007E0008316DD000130DE002830DF00FD20831697
:1007F000AB01AC010630FB001330FC00AD30FD0056
:10080000FD0B002CFC0B002CFB0B002C000000004F
:100810000130E3001820803083162C06F000803071
:100820007002031D152C0A302B02031C3A2C0230D7
:10083000DD000130DE004330DF00FD200230831692
:10084000DD000130DE005830DF00FD208316AB01F3
:10085000AC010630FB001330FC00AD30FD00FD0B99
:100860002F2CFC0B2F2CFB0B2F2C00000000013039
:10087000E300182083126B08AF3E84000008831643
:10088000E100A220EB0A0319EC0A80306C06F000AC
:1008900080307002031D4E2C0A306B02031C5A2C50
:1008A000EB01EC0101308316DD000130DE00563033
:0808B000DF00FD204D2A5B2C46
:10097400203084004B3083120313F0006130ED000B
:100984000430EE001C22A03084000B30F000AC30A8
:10099400ED000430EE001C226B3084000230F000C5
:0C09A400B730ED000430EE001C2208000B
:1008C200773465346C3463346F346D34653400349A
:1008D20055346E34563461346C34693464340034C3
:1008E2005534733465347234323420343A3420341B
:1008F20030343334303430343234453432343834B2
:06090200333438340034E8
:100908005534733465347234313420343A342034F5
:10091800303433343034303432344534393430348C
:06092800423430340034BB
:04092E00533400340A
:0C093200563461346C3469346434003491
:10093E006434613474346134203474347834203443
:06094E00203420340034C7
:0409540053340034E4
:100958006E346F3420346434613474346134203438
:0609680074347834003401
:04096E00003400341D
:02400E004A2F37
:00000001FF
