:020000003E2997
:0400060000000800EE
:10000A00103083120313FD00FD0B092800000800BD
:10001A00083083120313FC002330FD00FD0B132864
:06002A00FC0B1328080086
:1000300083160313AA1B1F28831206132128831279
:10004000061783162A1B2728831286122928831253
:1000500086168316AA1A2F288312061231288312B5
:10006000061683162A1A3728831286113928831216
:1000700086156F183D2886143E2886100615032025
:1000800006118316AA1947288312061349288312DA
:10009000061783162A194F288312861251288312B5
:1000A00086168316AA185728831206125928831217
:1000B000061683162A185F28831286116128831278
:1000C00086156F1865288614662886100615032085
:0E00D00006116F1C6D280D206E2805200800FB
:1000DE00831203136F1083162908AA0018206F14B9
:0200EE00080008
:0E00F0008312031363088A006208820008006E
:1000FE008316031306118610861106128612061336
:10010E0083120611861006138612061286110D2012
:10011E000D200D20061686150615032006110D203E
:10012E000615032006110D200615032006110D20BD
:10013E0086110615032006110D2006150320061143
:10014E00061206170615032006110D200613861536
:10015E0006150320061186110615032006110D2023
:10016E0006150320061186150615032006110D200F
:10017E008611061503200611061786160616861515
:0C018E000615032006110D206F14080058
:0E019A000030831203138C1A0130F0000800AD
:1001A800831203131A08F100981CDC281812181679
:0601B8007108F0000800D0
:1001BE0083160313981690308312980083168717B0
:1001CE00071383128C1EEE281A08F000E828080088
:1001DE0078208A110A128000840AE20A0319E30ABF
:0801EE00F003031DEF280800D7
:1001F6000D29803083160313A5002029C030A500E1
:1002060020299430A5002029D430A500202980304B
:10021600A5002029831603132508013A0319FC2893
:100226002508023A031901292508033A0319042966
:100236002508043A031907290A292603F000250888
:10024600F0077008A5007008AA0018206F10831622
:10025600A801280827078400000803193B29280855
:10026600270784000008A9006F208316A80A2C29F6
:0602760083126F14080062
:10027C002A237F2002308316A5000130A6002030EF
:10028C00A700FB206730831699001815DF20831612
:10029C0006108312061001308316A5000130A6004B
:1002AC002A30A700FB20CD2070080319E02A28086B
:1002BC00643E8316A400D42083162408840070089E
:1002CC00800083122808643E84000008303A031D25
:1002DC007F29803083162306F00080307002031DC6
:1002EC0079290A30220203187F29A20A0319A30ACA
:1002FC00DF2983122808643E84000008333A031D6A
:10030C009729803083162306F00080307002031D7D
:10031C0091290A30220203189729A20A0319A30A69
:10032C00DF2983122808643E84000008323A031D3A
:10033C00AF29803083162306F00080307002031D35
:10034C00A9290A3022020318AF29A20A0319A30A09
:10035C00DF2983122808643E84000008453A031DF7
:10036C00C429003083162306031DBE29053022063E
:10037C00031DC429A20A0319A30ADF298312280822
:10038C00643E84000008383A031DDC298030831653
:10039C002306F00080307002031DD6290A30220299
:1003AC000318DC29A20A0319A30ADF298316A20168
:1003BC00A30183122808643E84000008303A031D10
:1003CC00F729803083162106F00080307002031D5F
:1003DC00F1290A3020020318F729A00A0319A10AEF
:1003EC00632A83122808643E84000008333A031DF4
:1003FC000C2A003083162106031D062A0130200624
:10040C00031D0C2AA00A0319A10A632A83122808C7
:10041C00643E84000008323A031D212A0030831602
:10042C002106031D1B2A04302006031D212AA00AC5
:10043C000319A10A632A83122808643E8400000869
:10044C00453A031D362A003083162106031D302A37
:10045C0005302006031D362AA00A0319A10A632AB7
:10046C0083122808643E84000008393A031D4B2A85
:10047C00003083162106031D452A06302006031D75
:10048C004B2AA00A0319A10A632A83122808643E86
:10049C0084000008423A031D602A003083162106AE
:1004AC00031D5A2A08302006031D602AA00A0319CE
:1004BC00A10A632A8316A001A10180302306F00053
:1004CC0080307002031D6C2A0A302202031C912A10
:1004DC000230A5000130A6002C30A700FB20023012
:1004EC008316A5000130A6003F30A700FB20831621
:1004FC00A001A1010630FB001330FC00AD30FD0063
:10050C00FD0B862AFC0B862AFB0B862A00000000BA
:10051C000130AA001820803083162106F0008030AC
:10052C007002031D9B2A0A302002031CC02A0230D1
:10053C00A5000130A6004730A700FB20023083162F
:10054C00A5000130A6005A30A700FB208316A0019D
:10055C00A1010630FB001330FC00AD30FD00FD0B9B
:10056C00B52AFC0BB52AFB0BB52A000000000130A4
:10057C00AA00182083122808643E84000008831601
:10058C00A9006F20A80A0319A90A80302906F000D7
:10059C0080307002031DD42A0A302802031CE02A82
:1005AC00A801A90101308316A5000130A600603016
:0805BC00A700FB205929E12AE8
:1006540020308400423083120313F000E730E200BC
:080664000230E300EF20080062
:1005CE00773465346C3463346F346D346534003491
:0405DE0000340034B1
:0405E200533400345A
:1005E6005534733465347234323420343A3420341A
:1005F60030343334303430343234453432343834B1
:06060600333438340034E7
:10060C0055346E34563461346C346934643400348B
:10061C005534733465347234313420343A342034E4
:10062C00303433343034303432344534393430347B
:06063C00423430340034AA
:0C064200563461346C3469346434003484
:04064E0053340034ED
:02400E004A2F37
:00000001FF
